:1000000001100B000400000000200000294D00003A
:100010000004002049140000E9130000E913000067
:1000200010B572B610211A4801600322D204826012
:1000300081611848CE210160C10381604E21816138
:10004000154803210160642181601449EE20086095
:10005000182000F0FDFD7F22114852020260124973
:10006000104B0B6042605A1C0A6082158260981C1B
:1000700008600E49042088620D48402181604121BA
:10008000416042210160012001F0AAFB10BD000087
:10009000000004400001044000030440000302404B
:1000A0000003014040FF00800000014000000340C9
:1000B00000010140000000000000000000000000FE
:1000C0000000000000000000000000000000000030
:1000D0000000000000000000000000000000000020
:1000E0000000000000000000000000000000000010
:1000F0000000000000000000000000000000000000
:1001000000000000000000000000000000000000EF
:1001100000F002F800F040F80CA030C808382418AD
:100120002D18A246671EAB4654465D46AC4201D12F
:1001300000F032F87E460F3E0FCCB6460126334221
:1001400000D0FB1AA246AB4633431847EC19000017
:100150001C1A0000103A02D378C878C1FAD85207A6
:1001600001D330C830C101D504680C60704700006D
:100170000023002400250026103A01D378C1FBD8C3
:10018000520700D330C100D50B6070471FB5C04681
:10019000C0461FBD10B510BD03488546FFF7F6FFEA
:1001A00000F000F900F0C5F80004002003B4FFF7E8
:1001B000F1FF03BC00F0C4F8801C800804D000BF2D
:1001C000401EFDD100BF00BF7047EFF3108072B634
:1001D000704780F310887047002203098B422CD3AC
:1001E000030A8B4211D300239C464EE003460B4387
:1001F0003CD4002243088B4231D303098B421CD3E9
:10020000030A8B4201D394463FE0C3098B4201D3DA
:10021000CB01C01A524183098B4201D38B01C01A12
:10022000524143098B4201D34B01C01A5241030989
:100230008B4201D30B01C01A5241C3088B4201D338
:10024000CB00C01A524183088B4201D38B00C01AE5
:10025000524143088B4201D34B00C01A5241411A0C
:1002600000D201465241104670475DE0CA0F00D0EF
:100270004942031000D34042534000229C460309E8
:100280008B422DD3030A8B4212D3FC22890112BA6E
:10029000030A8B420CD3890192118B4208D3890146
:1002A00092118B4204D389013AD0921100E089095E
:1002B000C3098B4201D3CB01C01A524183098B423F
:1002C00001D38B01C01A524143098B4201D34B0128
:1002D000C01A524103098B4201D30B01C01A52418B
:1002E000C3088B4201D3CB00C01A524183088B4212
:1002F00001D38B00C01A5241D9D243088B4201D39B
:100300004B00C01A5241411A00D201466346524185
:100310005B10104601D34042002B00D54942704784
:1003200063465B1000D3404201B50020C046C04682
:1003300002BD0446C046C0462046FFF737FF000016
:1003400001491820ABBEFEE726000200704770B5D9
:100350008C180578401C6B075B0F01D10378401C9B
:100360002A1106D10278401C03E00678401C0E706A
:10037000491C5B1EF9D12B0705D40023521E0DD456
:100380000B70491CFAE70378401CCB1A921C03E05F
:100390001D785B1C0D70491C521EF9D5A142D8D3A3
:1003A000002070BD01F0E4FA01F02EFBFEE7000032
:1003B000F0B5114E00237068F70138437060306863
:1003C0004008400030601A460021084695012C5C28
:1003D000401C091980B24028F9D3521C5B1892B214
:1003E000802AF1D37068B8437060306801210843F7
:1003F000306098B2F0BD00000000104010B509490F
:10040000094B4200094C095C9B5AA3520023153C3E
:10041000235420461D30835215382246405C10324A
:10042000505410BDF41A0000C4000020F400002055
:10043000F8B506468024002015460F469055A85D65
:100440002043A855304600F0F0F8B84202D2A85D2B
:10045000A043A8556408F2D1F8BD10B50024204689
:1004600000F046F8641C042CF9D310BD10B5184BED
:1004700018681849C0B28871174C0109A0780901A1
:100480000007000F0843F022A178904309090901F1
:1004900001431960124811498160124941601248B4
:1004A00001681303994303235B0419430160016846
:1004B0009143602211430160072000F08BFB0B4940
:1004C000072000F0B5FB0321072000F097FB10BDCB
:1004D00000FF0840B000002060F1FF0F00020001A3
:1004E000000008400008A001000002404106000092
:1004F000F8B504461B480025025D001D005D96000E
:1005000081004300C018174AC7B20C3216489359ED
:10051000005D1A689C460F238B409A4363461A601D
:10052000022801D0012800D00625FFF74EFE034621
:100530000C481C30815908680722BA409043BD40DE
:1005400005430D601846FFF744FE06482C308059DD
:1005500002680449091D0B5D012199408A4302602C
:10056000F8BD0000EC1A0000C000002010B500F03B
:10057000CFF900F08DF90021084600F06DF9002157
:10058000084600F0A9F9FF2000F074F9402000F0BF
:10059000B1F904494868044A10434860072000F054
:1005A00023FB10BD0000084000100880F8B510497A
:1005B0000E5C091D085C410045188400FFF705FE2C
:1005C000B1000B4E0C36725812680F23A3409A43A9
:1005D0000423A340134332461032525814680727AD
:1005E000AF40BC43146071580B60FFF7F2FDF8BDDB
:1005F000EC1A000010B50446641CE4B2042C05D0CB
:100600002146034800F006F80028F5D0204610BD2A
:10061000B3000020CA084B075B0F01219940805CA2
:10062000C9B2084000D00120704770B500250646C9
:100630002C46304600F044F900F060F80128FBD069
:10064000304600F003F94519641CF2D0A8B270BD21
:1006500070B5072000F0BEFA194901204861194C15
:10066000207800F053F8184D2878000604D5287833
:100670004008400028701EE02078FFF7BBFF207084
:100680002078042803D2207800F06CF813E0287852
:10069000400840002870287840060CD50B490020FF
:1006A0000B4A0C4B0870C0B2145C1C54401C000672
:1006B000000E0870F7D0072000F096FA70BD000019
:1006C00000000840B2000020B10000204C010020D2
:1006D000B7000020B300002010B50020064A0146F4
:1006E0001154401C0428FBD3FFF7C0FE002000F08B
:1006F0002DF9FFF7B2FE10BDC0000020024840787F
:10070000C007C00F70470000B000002070B5114D49
:100710000446E868104A610050522046FFF7E8FEA0
:10072000002C01D0022C02D1601CFFF7E1FE072053
:1007300000F050FA68680949084005214903084358
:100740006860A86806490840A860072000F04CFAD5
:1007500070BD000000000840C4000020FF1FDFFF44
:1007600000FF80FFF8B504463248005D860032483D
:10077000875900F0CDF800F08BF82F4D00211C3D7B
:100780006879401E80B200F067F828790021401E89
:1007900080B200F0A1F8FF2000F06CF8402000F0DB
:1007A000A9F8072000F016FA244A506840210843AF
:1007B0008021884329796B790D03691A1E4D09043C
:1007C000AD595D43A94201D28021084315465060CE
:1007D000072000F009FA072000F0FCF9A968184882
:1007E000154A014014481438103A125D005D120495
:1007F0000A431043A8606E68124806401248064338
:10080000072000F0F1F92046FFF7D0FE002C01D0C0
:10081000022C02D1601CFFF7C9FEFFF7D6FC04468C
:100820006E603320FFF7C8FCEF602046FFF7D1FC75
:10083000F8BD0000F41A0000CC00002000000840C1
:1008400000FF80FFFF1FDFFF200020000149400064
:10085000085A7047C4000020054B1A68000252076E
:10086000520FC9061043090E084318607047000074
:100870000003014005490A68002AFCDB0002403001
:100880000122D207104308607047000000000140B9
:10089000034801680029FCDB024901607047000041
:1008A000000001404000004003484068002802DA90
:1008B000024901200870704700000840DC00002059
:1008C00010B5044900224A70887081224A70FFF7EF
:1008D00049FF10BDB0000020054B5A6800025207C6
:1008E000520FC9061043090E0843586070470000B4
:1008F0000003014005490A68002AFCDB0002413080
:100900000122D20710430860704700000000014038
:10091000034801680029FCDB0249016070470000C0
:100920000000014041000040014A1154704700009E
:10093000BC000020014A115470470000B80000209C
:10094000014A4000115270470C010020034A810700
:100950005068490D01435160704700000000084095
:1009600010B5FFF7A1FF072000F034F907484168F0
:100970008122120391434160416849004908416066
:10098000FFF7C6FFFFF784FF10BD0000000008401E
:10099000F8B5264C2078002803D1FFF79DFE0120F2
:1009A0002070FFF7E3FD224FB86803210906884352
:1009B000B8601E4E00241F4D1C3603E0002C01D0F1
:1009C000022C02D1601CFFF7F1FD285D552180004B
:1009D0003058000C48436421FFF7FEFB134A0146E0
:1009E00008322046FFF724FD002C01D0022C02D152
:1009F000601CFFF77DFD641C042CDFD30B4A002034
:100A00000832131D115C4C1C64081C544908115415
:100A1000401C0428F6D3B868012109060843B860D1
:100A20007868891008437860F8BD0000B0000020A5
:100A300000000840F41A000010B5072000F0CAF8C2
:100A4000074841688122120391434160416849008F
:100A500049084160FFF75CFFFFF71AFF10BD000077
:100A600000000840F8B5044629486600005D4200D1
:100A70002848805A00902848815B26481838805BB7
:100A8000884207D8234D0023213D2B550B1A9DB2D8
:100A9000012714E0431A9DB21E4B002708339B5ACE
:100AA000AB420CD21B482138005D462803D32046B8
:100AB000FFF7A4FC1BE017492139401C1AE0009BFA
:100AC0009D4206D9134B08339A5AAA4213D9002FD4
:100AD00011D1104A03022D3A125D1A435118081A17
:100AE00001020A0C0B4918398A531539085509496E
:100AF000002021390855074900981039854203D94B
:100B0000002F01D08D53F8BD00208853F8BD0000A0
:100B1000F41A00000C010020C400002010B50024CD
:100B200021460648FFF776FD002802D02046FFF751
:100B300099FF641C042CF3D310BD0000B300002007
:100B400000B5FFF78FFF00BD10B5FF20FFF7D2FE05
:100B5000FF20FFF78FFE03480078002801D0FFF741
:100B600005FD10BDDC00002010B500F097FE084A1E
:100B70000849012806D00120D073C879FB22104013
:100B8000C87110BD0020D073C87904221043F7E764
:100B9000680000205001002070B501260446074D72
:100BA000F60303E0E868FFF707FBA41BB442F9D89B
:100BB000A8686043FFF700FB70BD00003C01002007
:100BC00010B5034909784843FFF7F6FA10BD000055
:100BD0003C010020C106C90E01208840014908607F
:100BE0007047000080E100E0C106C90E0120884086
:100BF000014908607047000000E100E070B506465A
:100C00008007C40E0D46A41DFFF7DFFA0146B208A7
:100C100006489200101802680323A3409A43A54097
:100C2000154305600846FFF7D4FA70BD00E400E004
:100C30000122520780008218106C11647047000076
:100C40000248C16AC2031143C162704700000340F9
:100C500070B50446182803D0202C01D0302C3CD18C
:100C6000FFF7B3FA1D4D0646A868C008C000A8608B
:100C7000E8681B49000A00026118497B0843E860E4
:100C80002869C008C0002861A8691549C009C001C9
:100C900020396118097D4906490E0843A8613220B0
:100CA000FFF78AFA182C15D90120E406400720180E
:100CB000A968400FC908C9000843A8603220FFF79F
:100CC0007BFA012080072018A968400FC908C900D5
:100CD0000843A8603046FFF77CFA70BD000F034060
:100CE000C0F1FF0F10B5FFF770FA0649498A064AAE
:100CF000516006490A6904231A430A6130BFFFF7AD
:100D000068FA10BD40F1FF0F0000034000ED00E065
:100D1000024841680122114341607047400003408E
:100D200002490148886370476588EDAC00000340C4
:100D30000248C16849084900C1607047400003404B
:100D40000148C06B70470000000003400248C168C2
:100D500001221143C160704740000340034600B5C3
:100D60000648C06A002801DBFFF76AFF03494031EB
:100D70000A68120C12041A430A6000BD0000034006
:100D8000F8B599480068002800D0804797489849EE
:100D900000880A6897490B68FF210231114002263A
:100DA000954C00292DD0944A403A116849004908D1
:100DB000116092490B78DF252B400B700B781025C2
:100DC0002B430B708A4B40339D68ED0617D48C4E35
:100DD0003678B04203D00D78082635430D70216A6D
:100DE00005256D03A9432162814C00218034A16057
:100DF0009960844B1970116863061943F0E00D780F
:100E0000EBE7D90603D57B4D00218035A9600A2187
:100E10000B427ED076498031C9687B4F490742D565
:100E20003968784F3D78002D0ED0012D36D1774F9F
:100E30003D88002D31D00126E662754E366831546A
:100E4000401C6D1E3D8029E0724D2D88A94224D2A0
:100E50000126E662704D08462D88A94201D2291A62
:100E600000E0002189B2694D0829298001D23E7035
:100E70000AE00829216A0AD001256D03294321626D
:100E800008215B4D8035A9605D49087006E00525A5
:100E90006D03294321620021F3E7E662544D0421EA
:100EA0008035296035E0216A890432D599070BD550
:100EB000554940398968256A0907090F05267603CF
:100EC000B5432562012507E0504D2988083989B2CC
:100ED000298008290DD80025002907D04C4E3668F6
:100EE000494F3F683754401C491EF9D1002D03D0AB
:100EF0000BE008210125F1E7216A0125ED032943D3
:100F000021623B4D00218035A96039490C25803193
:100F10000D60990747D5D1062027002914DA3449F6
:100F2000002380318B60324940318B60344D022187
:100F30002D78A84200D00A21304D11402E7831433F
:100F4000B94329702F490B7051062AD52B480178D7
:100F5000394301702A48616A0078C90611D52D49C4
:100F60002A4B0988091A19802C494D6801231B0452
:100F70001D434D604D689D434D601D4B1021403316
:100F800002E01B4B0421803399601A49012580310E
:100F90000D601749224B0B608B68102633438B6022
:100FA000E56213490A6013490968490719D51849C8
:100FB0001A4C164B4034194D0A68FF27198800292E
:100FC00005D0165C2660401C491E198000E0276091
:100FD000A9680907090F0829F0D1054A10214032F4
:100FE000116002490880F8BD28010020340100206A
:100FF000400F0640000E0640400006402C01002035
:101000002E0100202D010020400306404E0100204B
:10101000380100203001002032010020000206408B
:10102000FF0F000010B504480168820311430160FE
:101030000520FFF7D9FD10BD0000064010B50520C2
:10104000FFF7C8FD05480478017849094901017096
:101050000520FFF7C9FD204610BD00002C0100202F
:1010600010B5FF2018490130086017491748403172
:10107000086218481649016000244460164A02615B
:101080001648016044600520FFF7A4FD03210520F8
:10109000FFF7B4FD12490520FFF7CAFD114884602F
:1010A000FF2010495230C03188600E488030846083
:1010B0000D4884600C48403884600C4844700470CB
:1010C0000481847010BD000000000640000800404C
:1010D00007010080000306404000FE0000020640B9
:1010E000710D0000800E0640C00F06402C0100204C
:1010F0000149002088607047800E064001490120A8
:1011000088607047800E0640002A03D0024BDA60E8
:101110009880D980704700002C01002010B5FFF79F
:10112000EDFF10BD10B5054C2078002803D1FFF766
:1011300097FF01202070FFF775FF10BD24010020EC
:1011400010B5FFF7D5FF10BD03498A6838239A43CD
:10115000C00002438A60704700030440044A1168DB
:10116000FD23C0071940800F08431060704700003E
:101170000003044003498A68D208D20002438A600F
:101180007047000000030440044A1168FE23C007B2
:101190001940C00F0843106070470000000304406E
:1011A000F8B55B4FB87B01280BD10024FFF746FF51
:1011B000800606D50220FFF703FD641CA4B2642C50
:1011C000F4D3544E30213078EF2302460A40717830
:1011D000B4780D461D40102A02D0202A07D00DE019
:1011E000FA7A002A0AD101223A73184005E0FA7A05
:1011F000002A03D13A73DF2210403070002D01D055
:10120000002C06D0A80610D5AA2C04D0BB2C07D0E1
:101210000BE00120F8BDDF2001407170002003E0E9
:10122000DF20014071700120B873E8090FD0AA2CAB
:1012300021D100217974F079BF221040802210431F
:10124000F07170784006400E7070B17011E0680661
:1012500011D5AA2C0FD101207874F07940214006D5
:10126000400E0843F0717078BF2108407070002074
:10127000B07000F0F7F80821082D08D0012D0ED02D
:10128000042D2AD0402D31D0802D3AD037E0AA2C21
:1012900035D13974F079C5210840102122E0AA2CFB
:1012A0002DD10120387400F05FF8F079C521084095
:1012B00002210843F0710020B07064213C2071725B
:1012C000B072F172307300243C212046FFF738FBE6
:1012D000641CA4B2042CF7D311E0AA2C0FD1F0792E
:1012E000C52210400843F071002007E0462C06D1CB
:1012F0000020F872F179BF221140F171B070002026
:10130000F8BD772CFBD10120F872F0794021E9E794
:10131000680000205001002004498A6807235B050B
:101320009A43400502438A60704700000001044070
:10133000044A1168C0074906490E000E08431060B0
:10134000704700000001044010B5054A054B00201D
:101350004100401C545AC0B25C520428F8D310BD5E
:10136000C4000020F4000020F8B500F04FF900F0B0
:101370009BF80D4D00210A4C0A4B2E46083E4800B2
:10138000225A1A52084F2A523252103F3A52083FFC
:10139000491CC9B23A520429F1D3FFF7BFFBF8BD8B
:1013A000C4000020F4000020A600002070B5FFF764
:1013B000EFFA0F48407C01280ED10E4D00242E1D5F
:1013C000295D2046FFF7B6FA315D2046FFF7ACFAFB
:1013D000641CE4B2042CF3D300243C212046FFF724
:1013E000AFFA641CE4B2042CF7D3FFF7BDFF70BD65
:1013F00068000020D41A0000FEE70000044A1168CB
:10140000BF23C0071940400E08431060704700001A
:101410000000044070B50E4E0125317B30460D4C66
:10142000407B012901D101280AD0014307D10120C5
:10143000FFF7E4FF7573E07940084000E07170BD8C
:101440000020FFF7DBFF00207073E0792843F5E709
:10145000680000205001002010B5FFF761FCFEF786
:1014600057FE10BD70B5FFF7E7FA0120FFF794FBB8
:10147000FFF78EFA0A48407C01280ED1094D00245E
:101480002E1D295D2046FFF755FA315D2046FFF7F6
:101490004BFA641CE4B2042CF3D3FFF765FF70BD74
:1014A00068000020D41A000030B5074A074B00201E
:1014B0004100545A5D5A401C6C43A402240CC0B233
:1014C00054520428F4D330BDC4000020DC1A0000BC
:1014D000F8B54849887A401CC0B28872032805D9FB
:1014E0004548827C521C827400208872C87C012886
:1014F00015D1424844220378022B06D94378022BA7
:1015000003D9027042700023CB748378022B06D972
:10151000C378022B03D98270C2700020C87435488A
:10152000007C082859D000F071F8FFF7BDFF344E59
:10153000344F00256C00305B395B884201D9411A79
:1015400000E0091AE122D200914204DD2949887C99
:10155000401C887423E0274B2E3319461A5B083150
:101560000A531039095B1953083B18539B1F1A8003
:1015700059809880184600F0E9F91E4A0146305318
:101580003E32105B884201D9491C315389B28842EE
:1015900001D2491E315311532846FFF7D1FA002DCD
:1015A00001D0022D15D11848FF21005B2D31884252
:1015B0000FD91049487A401CC0B24872142808D18B
:1015C00000204872385B401C3853E0194188491CA0
:1015D00041806D1CEDB2042DACD30648817B0129FE
:1015E00006D1817C012903D900218174FFF7BCFE5B
:1015F000F8BD00006800002070010020EB00002012
:10160000C4000020F4000020FC000020F0B585B0EC
:10161000002001466E468200401CC0B2B150042832
:10162000F9D3124F002500242046FFF749F9FFF7B0
:1016300065F80028FBD1A00062003158BA5A641C3A
:101640008918E4B23150042CEED36D1CEDB2022D9A
:10165000E9D30020810071584200C903090C401CE5
:10166000C0B2B9520428F5D305B0F0BDC4000020C3
:1016700070B5FFF7E3FC0020FFF75AFE00240E4D83
:10168000FFF7DCFC800606D40220FFF799FA641C01
:10169000A4B2AC42F4D30024FFF7D0FC800606D5F8
:1016A0000220FFF78DFA641CA4B2962CF4D301201B
:1016B000FFF73EFE70BD0000DC050000F8B5464DAA
:1016C000444AA87D13880009000108272821002624
:1016D000642B03D93843A875697101E0A8756E7150
:1016E0006879A87190886428A87D06D90007000F42
:1016F00080221043A875E97103E00007000FA87568
:10170000EE71E8792872A87D297D884200D06E7537
:101710002875697D0124491CC9B26975EA7B002AD4
:1017200001D0012A04D1012902D96E75EC7502E0BD
:10173000E97D00294CD0EE752E70010700D52C7084
:10174000C0090222002802D0287810432870287887
:101750006978884225D04140EE70A970CB0704D04B
:10176000C30701D0EC7000E0EA70890707D5800755
:10177000E87802D50421084300E03843E8701749AF
:10178000E878C870FFF774FF2E836E832E71E87AB5
:1017900001281BD12878002801D02C7316E02E7365
:1017A00014E000280AD0288B401C80B228835A28D5
:1017B0000CD92E83EC74FFF7C7FD07E0688B401C43
:1017C00080B26883FA2801D36E832C712878687000
:1017D000F8BD0000FC00002068000020500100203F
:1017E000094A1168002802D09304194301E0490016
:1017F00049081160054B996A2022002801D0114345
:1018000000E09143996270470020024000000340CD
:1018100070B500241E4DFFF711FC800606D502208E
:10182000FFF7CEF9641CA4B2AC42F4D3194C207972
:10183000002816D00B208001E061FFF779FAFFF74E
:101840007FFAE16980B24018FFF788FAFFF77EFA65
:101850001148406AC007C00F06D00C20FFF79CF962
:1018600070BD01204002E7E70020FFF755FDFFF7BC
:1018700077F8FFF753FCFFF735FAFFF761FCFFF746
:1018800063F90420FFF748FD0120FFF751FD70BD0B
:10189000DC05000068000020400006400248406867
:1018A0004007C00F704700000003044010B5FFF769
:1018B0002FFAFFF73DFAFFF743FA044980B2C969EE
:1018C0004018FFF74BFAFFF741FA10BD68000020FF
:1018D000F0B572B60020174E174F18494300CA5A88
:1018E0001749C95A0C465443A402240C2502240A61
:1018F0002543DC19E583F35A59438902090C0D028B
:10190000090A0D43E5849A4201D9D11A00E0002169
:1019100089B20A02090A0A430A49E2820A5C3918B2
:101920004A73094A125C401CC0B24A740428D4D3DA
:1019300062B6F0BDF400002050010020C400002079
:10194000E41A0000B8000020BC0000208288418812
:1019500000888A4207D3814201D3084670479042EB
:10196000FCD3104670478242FBD28842F5D27047C2
:1019700070B50F4C206840084000206000200D4BDF
:101980000D4A01E0042802D28100595800E00B49B9
:101990008500401C51511928F4D3FEF741FB08493A
:1019A00000200860206801210843206070BD00000D
:1019B000000010400000000000000020E9130000BB
:1019C0006400002010B50446FEF7FFFB04494A6896
:1019D000C0239A43A3011A434A60FEF7FAFB10BDE5
:1019E00000E400E010B5064910240C6005490865C4
:1019F0000320FFF7E7FF02488038046010BD0000B5
:101A000080E100E0000000200120FFF7F7FC314DED
:101A100001276F730420FFF77FFC0120FFF788FC8C
:101A20002D4C0026267041206070A670E6700B20B9
:101A30002071042060718020A0718220E0716421F7
:101A400061723C20A072E172207326726675234891
:101A5000E085FEF7ADFC2086224603213C20FFF7FF
:101A600053FBFFF75FFB0220FFF76EFB0220FFF73F
:101A700081FB0120FFF772FB0120FFF785FB62B6B7
:101A8000FFF74EF91E20FFF787F8EE722F746E7481
:101A9000AF73EF73E869FFF761F9FFF757F9104883
:101AA000FFF7A0FFFFF782FCFFF712FDFFF706FE2E
:101AB000FFF776FBFFF7AEFCA87B002804D0FFF70A
:101AC000A7FEFFF751F8EFE7FFF702FF0C20FFF743
:101AD00063F8F6E76800002050010020090A0000C2
:101AE0009D18000010080A0411090B0522002200AD
:101AF0001900190078007800A300A300010101017A
:101B0000060302010001020300000240000102403E
:101B100000020240000302400800044008010440A3
:101B2000080204400803044000000440000104408F
:101B30000002044000030440581B00000000002085
:101B40006400000044010000BC1B0000680000208D
:101B5000E800000044010000A41C00005001002027
:101B60003C000000600100000000000000000000D8
:101B70000000000000000000000000000000000065
:101B80000000000000000000000000000000000055
:101B90000000000000000000000000000000000045
:101BA0000000000000000000000000000000000035
:101BB0000000000000000000000000000000000025
:101BC0000000000000000000000000000000000015
:101BD0000000000000000000000000000000000005
:101BE00000000000000000000002000000000000F3
:101BF00000000000000000000000000000000000E5
:101C000000000000000000000000000000000000D4
:101C1000000000000000000F0402000078787878CF
:101C20005050505000000000000000000000000074
:101C30000000FF1F0000FF1F0000FF1F0000FF1F2C
:101C40000000000000000046464646010101010078
:101C50000000000000000000000000000000000084
:101C600000000000000000003200320032003200AC
:101C700014001400140014003C003C003C003C0024
:101C80000100010001000100000000000000000050
:101C90000000000000000000000000000000000044
:101CA0000C000000001BB700E02E000000007017C1
:101CB0000000000000000000000000000000000024
:101CC0000000000000000000000000000000000014
:101CD0000000000000000000000000000000000004
:101CE00000000000000000000000000000000000F4
:00000001FF
